:020000040800F2
:10000000002000109DCE0108E170010829030108BD
:10001000DF700108DD700108DB70010800000000DE
:10002000000000000000000000000000D97001087E
:10003000D770010800000000D57001088580000815
:1000400039CF010839CF010839CF010839CF01086C
:1000500039CF010839CF010893880008A788000824
:10006000A38800089F8800089B880008B5520108F3
:10007000A5520108955201088552010875520108E0
:10008000615201084D52010839CF010839CF0108EA
:100090002995010839CF010839CF01089788000850
:1000A000B12D0008052E000839CF0108F52D0008F4
:1000B000E52D0008D52D000839CF010839CF0108FA
:1000C00039CF010839CF010839CF010839CF0108EC
:1000D00039CF0108895101087D510108715101088A
:1000E0008F88000839CF0108C570010839CF010891
:1000F000D12D000839CF0108C12D000839CF0108E2
:1001000000000000000000000000000039CF0108DE
:1001100039CF010839CF010839CF010839CF01089B
:10012000395201082552010811520108FD510108F8
:10013000E951010839CF010800000000000000006B
:1001400039CF010839CF010839CF0108000000007C
:10015000000000000000000000000000000000009F
:10016000000000000000000039CF010839CF01086D
:1001700039CF01080000000000000000000000006E
:080180000000000039CF010866
:10018800F8B5174C237806463BB1002362689942BC
:1001980008BF904224BF00232370124D2B6A2846C3
:1001A8009847C20709D50123237280F00203C3F3DD
:1001B800400323702B6933446360430744BF012322
:1001C80063722369F61A002EC4BF01232372237AAF
:1001D8001BB9607A00F00100F8BD0120FAE700BF02
:1001E800F8070020384F002020B10078B0FA80F0DE
:1001F8004009704701207047114B30B503F11004D6
:100208000146224653F8045B41F8045BA342F9D146
:100218001B880B800A4900F1120351F8044B43F87C
:10022800044B9142F9D111881980054B243053F8B9
:10023800041B40F8041B9342F9D11B88038030BD8E
:1002480064F90108194BDB8AC01AB0F5FA7F184B1C
:10025800A8BF4FF4FA70984210B5B8BF18460C46BC
:10026800114609F05EFB00B207EE900A9FED117A85
:10027800F8EEE77AE4B2C7EE876ABBEE096A07EEE2
:10028800904AA6EEA66AB8EE677ADFED0B7AE7EE3B
:10029800067A67EEA67AF3EE096A87EEA67AFDEE8D
:1002A800C77A17EE903A18B210BD00BFD44E00209E
:1002B8000CFEFFFF0000C84200401C4570B50B4E05
:1002C80035792D1A18BF01250328044634BF044682
:1002D8000024204608F0D2FD054B347104EBC40419
:1002E80003EB4404034B28461C6070BDE24D00201C
:1002F800100800208456002008B520211EF059FF60
:100308000346184623B10278202A03F10103F8D0E6
:1003180008BD70B50D461446FFF7EEFF0646A0B1BE
:1003280008F0D4FE40F634039842A8BF1846B0F54A
:10033800617FB8BF4FF461701923A0F5617090FB1D
:10034800F3F028702378013323703046FFF7D4FF89
:100358000646A0B108F0BAFE40F634039842A8BF9A
:100368001846B0F5617FB8BF4FF461701923A0F546
:10037800617090FBF3F06870237801332370304686
:1003880070BD70B5054608460E461BF0C3FD3146E4
:1003980004460246284608F07FFE60B92B5DA3F1AB
:1003A8003002092A06D923F02003413B192B01D931
:1003B800601C284470BD0020FCE708B5184B194C98
:1003C8001D68A06819F0B6FD284619F0B3FDA068AD
:1003D80041798B0703D441F0020107F098FE002011
:1003E80016F0F8FBA06807F09BFE60B1012016F03C
:1003F800F1FBA06807F091FE0146284607F093FE3E
:10040800002016F0E7FB284607F08AFE0028E9D00E
:10041800284607F082FE0146A06807F084FEE1E75F
:1004280024280020C027002010B4447A631C044408
:10043800DBB24372A172027A9A4203D85DF8044B88
:1004480008F0CABC5DF8044B70470FB413B5084CEC
:100458000849206804AB53F8042B019309F078F895
:10046800206808F0B9FC02B0BDE8104004B070473D
:1004780020280020310400082DE9F0470669C368E8
:10048800054689461E404FF000474FF000080EB958
:10049800BDE8F087B6FA86F327FA03F2D2431B3B8E
:1004A8002A611640042BF2D8DFE803F02925211A27
:1004B8000300D9F8244084B1013CA4B2C9F82480CF
:1004C800D9F820A0BAF1000FE1D0DAF80030504690
:1004D80021469847DAF804A0F4E7EC6AA4B2EFE7FB
:1004E800D9F80000696B036889B29847CFE7D9F853
:1004F8000400A96BF7E7D9F80800E96BF3E7D9F826
:100508000C00296CEFE70F4B1B68590702D50E4A00
:100518001278AAB19A0603D50C4A92F84E207AB1FD
:100528000B4A92F8980058B10A4A12880AB19B07F8
:1005380007D4094BB3F84800003018BF01207047B2
:10054800012070474C4D0020C8260020F8070020E5
:10055800D8260020884E00207804001038B5114CA9
:10056800114DAC420AD3002008F088FC0F4817F060
:10057800EFFF0F4B1879BDE838409FE6B4F9023019
:10058800002B4FF00001204607DA08F0B1FC0121EA
:10059800204608F0ADFC0221204608F0A9FC1434DE
:1005A800DFE700BF28480208484B02083526020842
:1005B800E24D0020044B5B7913B9044B186870476F
:1005C800034B9888704700BFE24D00206801001077
:1005D800C01F0020074B1B68597A4A1C1944D2B225
:1005E8005A728872197A914202D8184608F0F4BBF8
:1005F800704700BF2028002038B5094D441E14F864
:10060800011F01B938BD2868427A531C0244DBB285
:1006180043729172027A9A42F1D808F0DDFBEEE754
:100628002028002008B50448FFF7E6FF034B1868A8
:10063800BDE8084008F0D0BB3E260208202800206C
:100648000048D9E72B2D0208F8B50C4C0C4E0D4F7D
:1006580004F5F8752068FFF7CFFF616811B13046DF
:10066800FFF7F3FEA16811B13846FFF7EEFE10342C
:10067800FFF7E6FFAC42EDD1F8BD00BF4004020829
:10068800432602084926020810B5064C0B460246C6
:100698000549206808F05CFF206808F09DFBBDE86C
:1006A8001040CDE720280020310400080FB407B51A
:1006B80004A951F8040B0191FFF7E6FF03B05DF8B8
:1006C80004EB04B070472DE9F04F1B481B4C1C4D40
:1006D8001C4FDFF8748085B0FFF7E8FF04F5E47677
:1006E800A379E27905EB830305EB8202D3F814A022
:1006F800237AD2F894B00393204607F057FF00F10D
:100708004109204607F048FF039B024663B1CDE943
:10071800003B494653464046FFF7C8FF0C34A64203
:10072800DED105B0BDE8F08FCDF800B0534649469C
:100738003846FFF7BBFFF1E74F260208B84800200C
:1007480064F901087B2602086B26020807B5064BE8
:100758000193064B0093064A064B07490748FFF7E3
:10076800A5FF03B05DF804FBBE260208C7260208F1
:100778008F260208892602089C260208A626020857
:100788002DE9F04F5348544D8DB0FFF78FFF0026E9
:10079800B046B146514B1A680023934223DB013619
:1007A800102E05F14805F5D14D49D1E9020240095D
:1007B8000C68096940EAC2624FF47A734948B4FB8D
:1007C800F3F3FFF773FF0A2298FBF2F302FB13809F
:1007D80099FBF2F1009002FB11924348FFF766FF84
:1007E8000DB0BDE8F08F414951F823108D4201D07A
:1007F8000133D2E7AC6A5CB107EE904ADFED3C6AA0
:10080800F8EEE77A86EEA77AFDEEC77A17EE904AF9
:10081800D5E90C727F0947EAC2675209D5E90EA3E8
:100828000B922146E217CDE90812099A63430AFBA5
:100838000233A4FB0A0141F2883B1BEB000B19446D
:100848004FF0000C4CEB010C4FF47A720023584621
:1008580061461CF08BF90B9B099A0A90634307FBCE
:100868000233A4FB070141F2883B1BEB000B194440
:100878004FF0000C4CEB010C00234FF47A725846F1
:1008880061461CF073F9062E18BF0A9B0A9918BF17
:1008980099444FF47A722B6CB3FBF2F306934FF042
:1008A8000A0318BF804490FBF3F203FB1200CDE962
:1008B80004200A9A92FBF3F203FB1213CDE90223F8
:1008C800CDE900A723462A680A483146FFF7EEFE1D
:1008D80065E700BFD3260208080300207402001051
:1008E800000000104F270208712702087802001044
:1008F800002474491A270208F8B5437913F0C00395
:10090800044602D0402B0CD0F8BD1AF03FFF054634
:1009180020461AF023FF29460246BDE8F8400E4853
:10092800C4E685790D4E0E48FFF766FE06EBC50353
:1009380000241F79BC4202D3BDE8F84080E614B118
:100948000848FFF759FE56F83530074853F8241081
:10095800FFF77BFD0134EDE79F270208900D0208A1
:10096800B6270208C6270208EB2B020830B54379E0
:10097800154603F00F0289B00446052A4BD8DFE874
:1009880002F0031417191C1E097813F0C00344D091
:10099800402B3ED1A379192B58D8314A52F833301D
:1009A80053F82100FFF751FD33E091F90010ECE70F
:1009B8000988EAE7B1F90010E7E70968E5E791ED8A
:1009C800000A684608F02AFC01462648FFF73DFD64
:1009D800FDB1637913F0C00F1BD120461AF0D6FE83
:1009E80007EE900A6846B8EEE70A08F017FC0146D9
:1009F8001D48FFF72AFD20461AF0B0FE07EE900AC0
:100A08006846B8EE670A08F009FC01461648FFF781
:100A18001CFD09B030BD0021B7E7042A0CBF1348FC
:100A28001348FFF712FD002DF3D0637913F0C00FC0
:100A3800EFD120461AF0AAFE054620461AF08EFE8F
:100A4800294602460B48FFF700FDE2E769462046C3
:100A58001AF0FBFE69460848FFF728FED9E700BFF1
:100A6800900D02084C260208EB2B0208B327020857
:100A78008E2C0208C8270208CF27020838B50D4671
:100A880004461AF0D5FE2A4601462046BDE83840FD
:100A98006CE72DE9F04F81468BB00F4600263F4B9F
:100AA800F4183F4B186808F097F994F805B00BF064
:100AB80030034B4547D120461AF09AFE08F024FA35
:100AC800054620461AF072FEAA68019202EB000859
:100AD800824620461AF0ACFE0BF00F010546019A3B
:100AE800052958D8DFE801F003373C40454912F89A
:100AF8000A200378D11AD1F1000A4AEB010AFA0652
:100B080002D5BAF1000F1ED102A920461AF09DFEA7
:100B1800BB060DD5BAF1000F0AD102A92148FFF78B
:100B280094FC524629462046FFF720FFFFF788FD30
:100B380002A91D48FFF789FC002241462046FFF71D
:100B480015FFFFF77DFD093640F6E1139E42A6D159
:100B58000BB0BDE8F08F12F90A2090F90030C9E710
:100B680032F80A200388C5E732F90A20B0F90030C4
:100B7800C0E752F80A200368BCE798ED007AD0ED88
:100B8800007AB4EE677AF1EE10FA0CBF4FF0010A62
:100B98004FF0000AB3E74FF0000AB0E7700F020801
:100BA80020280020E5270208E62702080CB407B52C
:100BB80010F0200009D069B92320FFF70BFD05A923
:100BC80004980191FFF760FD012003B05DF804EB84
:100BD80002B070470020F8E70CB4C30607B500D58B
:100BE80051B905A904980191FFF74EFD012003B002
:100BF8005DF804EB02B070470020F8E770B50546D1
:100C08001BF088F9044690B1112200210F481EF00C
:100C1800B9FA22460E4928461EF0E0FA38B1102CDF
:100C280022462946A8BF102208481EF0E9FA094BB7
:100C380013F80B2F002A064A06BF0121134600218C
:100C4800054A0120BDE87040C6E700BFED4D002011
:100C5800582B0208E24D0020F02702082DE9F04F3A
:100C6800824687B091460E4615460027337896F996
:100C7800028004937378059396F803B0B8F1000FD7
:100C880032D0B9F1000F34D02B78049C6A7895F9EA
:100C98000210E8789C422AD1059C944227D18845C5
:100CA80025D1ABEB000CDCF1000444EB0C04CDE9DE
:100CB8000210CDE9003221463B460F4A5046FFF765
:100CC80075FF059B0193049B0093CDE9028B3B467E
:100CD800094A214650460137FFF77EFF102F06F1DB
:100CE800040605F10405C1D107B0BDE8F08F002462
:100CF800DDE74C46E5E700BFF82702082DE9F04F8D
:100D0800DFF800B187B08046894617460D4614467D
:100D18004FF0000A002F70D06A6863689A426AD15F
:100D2800AE68A368F31A5E425E4194F90B300493EF
:100D380094F90A300393B4F908300293B4F90630F1
:100D48000193B4F9043000935A465346314640465D
:100D5800FFF72CFF95F90B30049395F90A300393AC
:100D6800B5F908300293B5F906300193B5F90430A6
:100D780000935A465346314640460AF1010AFFF7A6
:100D88002BFFBAF1080F05F10C0504F10C04C1D1D1
:100D980077B3002426460025012303FA05FA3A59B9
:100DA80059F8043053403AEA030314BF4FF0010BDB
:100DB8004FF0000B12EA0A0F06D000953346104A8E
:100DC80059464046FFF7F2FE59F804301AEA030F75
:100DD80006D0009533460A4A59464046FFF7FCFEBE
:100DE80001350F2DD8D10136082E04F10C04D2D1CB
:100DF80007B0BDE8F08F002697E73E46AAE700BF98
:100E0800252802080C2802082DE9F347DFF868A016
:100E180081460F46904602260024B8F1000F28D0DC
:100E280038F8243037F8241038F8062099421ED1B3
:100E3800BD5BA91A4D424D41CDE9003229462346F2
:100E480052464846FFF7B2FEBB5B019337F82430A1
:100E5800009352462346294648460134FFF7BCFE14
:100E6800042C06F10406D8D102B0BDE8F0870025AD
:100E7800E2E74546E8E700BF3A2802082DE9F04FC7
:100E88002DED088BDFF80C9197B0804692460D4601
:100E98001446002695ED008AB5EE408AF1EE10FA68
:100EA80070D0D5ED019A95ED029AD5ED038ABAF185
:100EB800000F3ED094ED000A94ED01BAD4ED02AAD9
:100EC80094ED03AAB4EE408AF1EE10FA5FD1F4EE85
:100ED8004B9AF1EE10FA5AD1B4EE6A9AF1EE10FA82
:100EE80055D1F4EE4A8AF1EE10FA0CBF012700271B
:100EF80012A808F093F9B0EE4B0A83460EA808F042
:100F08008DF9B0EE6A0A05900AA808F087F9B0EEE4
:100F18004A0A049006A808F081F9059B049A0390F0
:100F28000292CDE900B34A46334639464046FFF7B8
:100F38003DFEB0EE480A12A808F070F9B0EE690A52
:100F480007460EA808F06AF9B0EE490A83460AA8CF
:100F580008F064F9B0EE680A049006A808F05EF993
:100F6800049B0390CDE901B3009733464A4600211C
:100F780040460136FFF730FE0C2E05F1100504F14E
:100F8800100487D117B0BDEC088BBDE8F08F00279F
:100F9800AEE700BF4B2802082DE9F04F834687B023
:100FA80092460C46164600274FF019094FF461780F
:100FB800BAF1000F4DD0B078A5783378727896F8EA
:100FC80003C096F804E07179854240D125789D42A6
:100FD8003DD1657895423AD1E578654537D125798F
:100FE800754534D165798D4214BF0025012519FB5B
:100FF800028219FB0383CDE9010303920091CDE935
:1010080004CE3B46144A29465846FFF7CFFD2379BC
:101018000593E378049363780F4A19FB03830393DA
:10102800237819FB03830293A378019363790093D0
:1010380029463B4658460137FFF7CEFD0C2F04F1F1
:10104800060406F10606B3D107B0BDE8F08F002507
:10105800CDE75546DBE700BF5F2802082DE9F04FD2
:10106800374FDFF8E4A089B0814690460C46164613
:1010780002F1300B94F9025000230C2202FB03F119
:1010880030480956A94256D00133062BF6D1083606
:101098005E4504F10804EDD109B0BDE8F08F96F97A
:1010A800023007939D423288F178307996F806C06D
:1010B80096F805E03DD1258895423AD1E5788D42EC
:1010C80037D12579854234D1A579654531D16579FE
:1010D800A5EB0E035D425D4157F82E3057F82110FD
:1010E80057F82000049357F82C300393CDE90021DA
:1010F8000290079B524629464846FFF757FD6279FA
:1011080094F9023057F822200492A27957F8222045
:101118000392227957F822200292E27857F8222087
:10112800019222880092294652464846FFF754FD0C
:10113800ADE70025D0E7B8F1000FB0D14546DEE7AE
:10114800D0090208044D00207D2802082DE9F04F3F
:10115800834685B092460D46164600274FF019097A
:101168004FF46178BAF1000F3ED032782C7871785C
:10117800B378F078944235D16C788C4232D1AC781F
:101188009C422FD1EC78A4EB000CDCF1000444EB7A
:101198000C0419FB008019FB0383CDE901130390AC
:1011A80000923B46114A21465846FFF7FFFCEB7870
:1011B8000E4A19FB03830393AB7819FB038302934D
:1011C8006B78019315F8043B009321463B4658463B
:1011D8000137FFF701FD142F06F10406C2D105B04F
:1011E800BDE8F08F0024D4E75446E0E79A280208C7
:1011F800F7B50746FEF7F8FF044630B1002222494A
:101208000120FFF7A3FF03B0F0BD384607F05EFFEB
:101218001328054630DC8600781C8DF80740FFF758
:101228006BF8194C074640B107F050FF1F289EBFC6
:10123800012304F825008DF807303846FFF75CF8DD
:10124800074650B107F042FF0D2806D8A319587079
:101258009DF8073001338DF80730B11C0DF10702F6
:1012680021443846FFF755F89DF80730042BCAD0BB
:10127800002344F82530C6E71323224603490448CF
:10128800FFF714FABFE700BFD84F0020AD280208C7
:10129800B328020808B5FFF7AFF9BDE80840FFF723
:1012A800CFB92DE9F047BD4BBD481968AAB04FF436
:1012B8007A7AB1FBFAF1FFF7F9F90BA808F09AF876
:1012C800B84BB3F90060002E00F0D2813C2796FBA2
:1012D800F7F425B207FB146424B2002C0BA8B8BF9E
:1012E800644208F09EF84FF47A72002380468946DB
:1012F8001BF0ECFB4FF47A7206FB0706002340460E
:1013080049461BF0E3FB002392B2CAFB062316A84A
:1013180008F004F816A90A8840F2B1739A4214D961
:101328008B78013B0B2B10D8CB78013B1E2B0CD8AC
:101338000B79172B09D84B793B2B06D88B793B2B8C
:1013480003D80B89B3F57A7F09D3974B16930023FB
:10135800ADF85C308DF85E30ADF8603016A9002D20
:1013680091F806C00A888B78C8780E794F79098970
:101378000794ACBF4FF02B0E4FF02D0E002DB8BFC9
:101388006D42CDE905E5CDE903C1CDE901670090DE
:101398008649874DDFF8C4820EA808F0DAF90EA94D
:1013A8008448FFF783F9844B1888844B6422B0FB88
:1013B800F2F102FB110282481B78007805EB8000ED
:1013C80092B2D0F8E40000907E48FFF76FF97E4BA8
:1013D8007E4819687E4BB1FBF3F1FFF736F87D4B79
:1013E8001E68002405F1F40705F588790123A34058
:1013F80033420BD057F8243043B118F8042059F879
:10140800241053F822207448FFF71FF80134072CE2
:10141800ECD1FFF715F971486D4C714FDFF8408238
:10142800FFF738FF16A816F01AF916996D48B1FBA0
:10143800F4F1FFF73BF917996B48B1FBF4F1FFF7AB
:1014480035F918996948B1FBF4F1FFF72FF91999A3
:101458006748B1FBF4F1FFF729F916F0ABFA044637
:1014680016F096FA064616F06BFA05EB8000614B0B
:10147800D0F83821019305EB860605EB8404CDE905
:101488000232D6F8382100925B49D4F838215B48FB
:101498005B4EFFF70BF95B4B5B4A1C885B495C486A
:1014A8004FF48063FFF702F95A4A5B4B5B48D31A43
:1014B8005B4AA4B22146B2F85020FFF7F7F8594822
:1014C800FFF7E8FE002456F824103846FEF7BDFF63
:1014D8004046FFF791F8544BE15C4FEA8409002934
:1014E80040F0CA805148FFF787F85148FFF784F861
:1014F800504B59F80310002940F0C2804B48FFF7C1
:10150800C9FE0134042CDED14B4B4C481988FEF738
:101518009CFF4B4B1A6F002A00F0B68007EE902A0A
:10152800DFED486AF8EEE77A86EEA77AFDEEC77A2D
:10153800CDED087AD3F89021002A00F0A78007EEB5
:10154800902ADFED406AF8EEE77A86EEA77AFDEE9C
:10155800C77ACDED097A9B6A5BB107EE903ADFED69
:10156800396AF8EEE77A86EEA77AFDEEC77A17EEC3
:10157800903A354A354811880093DDE90823FFF78A
:1015880095F83348334FFFF737F8334B1C6824F08E
:101598007C4424F07F04012664E000BFA03E0020C4
:1015A800D0280208D820002000000101EA280208FB
:1015B80064F9010818290208BE4D00200403002020
:1015C800964D002029290208000000204C29020815
:1015D80040420F004C4D00205C2902086429020893
:1015E800A12A0208792902088B2902089D290208E4
:1015F800AF290208C1290208C6290208C929020818
:10160800ACFA0108D81E00200020001000180000C5
:101618001C2A02080000040800F00308542A0208E3
:10162800F80700208E2A02084A080020E52B020845
:10163800BF2A0208784E00207C010010C92A02083F
:101648000803002000247449D41E0020D92A020867
:10165800162B0208EB2B020898530020644D00203B
:10166800A92A0208A4B9FEF7EBFF2AB0BDE8F08763
:10167800344635460BA94EE60E48FEF7E6FE34E73B
:101688000C48FFF713F83CE7089253E7099262E722
:1016980094FAA4F3B3FA83F306FA03F2062B24EAC6
:1016A8000204DFDD05EB83033846D3F83C11FEF76F
:1016B800CCFED7E7B82A02082DE9F0430024DFF86A
:1016C8006080DFF8609089B00746264604EBC405C1
:1016D8004544694628461AF0B8F8394668461DF068
:1016E800B6FD78B169464846FEF7AFFE00212846A8
:1016F800FFF7C4F9FEF7A4FF2846FFF7FDF8FEF749
:101708009FFF0136013440F219139C42DED116B90D
:101718000248FFF7BFFD09B0BDE8F0832D2B020892
:10172800700F0208EA2702082DE9F04F2DED028B11
:1017380089B080461AF0EEFB064628B1012825D16B
:1017480098F800302A2B21D18148DFF82482814F74
:10175800FFF7A0FD002404EBC4054544694628466C
:101768001AF073F869463846FEF76FFE3146284688
:10177800FFF784F90134FEF763FF40F219139C4226
:10178800E9D109B0BDEC028BBDE8F08F3D214046A0
:101798001DF00FFD002800F0D780034613F8012C38
:1017A800202A03F1FF3130D0A3EB0803441C227830
:1017B800202A04F101012AD0DFF8B4A14FF0000972
:1017C800DFB209EBC9055544694628461AF03DF8C9
:1017D80068461AF09FFB694606460246404607F0EF
:1017E8005BFCB0B9BE4214D16B7903F00F0713F05C
:1017F800C00318D0402B69D05748FEF7FDFE284695
:10180800FFF77AF8FEF71CFFBBE70B46C6E70C4666
:10181800CDE709F1010940F219139945D1D14F4893
:10182800FFF738FDADE72378002BE5D04C4920467B
:101838001DF0FBFC064620461AF06CFB8642DBD105
:10184800204607F060FC2846B0EE408A19F09EFF5B
:1018580007EE900AF8EEE77AF4EEC87AF1EE10FA9D
:10186800CAD8284619F07AFF07EE900AF8EE677A88
:10187800F4EEC87AF1EE10FABEDB052F16D0042F6D
:101888001ED1214614F8013B202BFAD0092BF8D0A1
:10189800013900230A2011F8012F303AD2B2092A5F
:1018A80002D800FB0323F6E708EE103A284619F0A1
:1018B800BFFF052F35D8DFE807F031313D3D414402
:1018C800204607F003FC08EE100AEFE7254A95F8D2
:1018D80006909FED258A02EBC903064693F804A0FB
:1018E800804603469346B24500D91BB1B8F1000FB4
:1018F80082D0DBE75BF839306FF0004253F82600FE
:10190800214607F0C9FB002808BF08EE106A0ABF85
:10191800012300234FF001080136E4E718EE103ADE
:10192800037069461148FEF790FD00212846FFF72D
:10193800A5F826E718EE103A0380F2E780ED008A52
:10194800EFE780ED008AECE74046FFF7B5FE18E7C1
:101958003A2B0208EA270208652B02082D2B0208F9
:101968004C2B0208900D0208000000005A2B0208B8
:10197800700F020838B50346FEF736FC78B3214BE2
:101988005B680133172B21D81F490C2202FB031275
:101998001C4695684DB91C4A0C210134172C17DDDB
:1019A800002401FB042085689DB1164B5C6018F08B
:1019B800B3FB2A4621461548FEF778FE0C235C4304
:1019C800114B185DBDE8384018F0B8BB1C46E2E77B
:1019D800E7D99C42E1D10E48BDE838405AE41846A0
:1019E80007F074FB1728044606D8074A0C2303FBA4
:1019F80000239D68002DD8D121460648BDE838400F
:101A0800FEF754BE00000020680B02089E2B020857
:101A1800742B0208882B02082DE9F047204FDFF8C5
:101A2800A080DFF88090DFF89CA0054628461AF0D1
:101A380071FA064658B91B4B1B481A781B4B03EB27
:101A48008203BDE8F047D3F8A011FEF72FBE024687
:101A58003946284607F020FB78B91548154C164D2D
:101A6800FEF7CAFD54F8041F19B12846FEF7EDFC2D
:101A7800F8E7BDE8F047FEF7E3BD002458F8241066
:101A880019B90E48BDE8F04704E43246284607F085
:101A980003FB01340028F1D189F800405546C5E719
:101AA800BD2B02080C570020B32B020864F901086B
:101AB800C22B020804FB0108D52B02082D2B0208B3
:101AC80008FB0108743502082DE9F74F80461AF023
:101AD80021FA484DDFF848912F680446F0B9464886
:101AE800464EFEF7B2FC012519F80430013B05FA11
:101AF80003F33B4209EB040203D091683046FEF73A
:101B0800A4FC0C34B4F5847FEED117B93C48FEF739
:101B180073FD03B0BDE8F04FFEF792BD02463949A8
:101B2800404607F0B9FA064670B93748334DFEF714
:101B380063FD09EB0603284699680C36FEF785FC19
:101B4800B6F5907FF5D1E4E798F800302D2B03BF68
:101B580008F1010804F1FF344FF0010A4FF0000AC0
:101B680000260C2303FB069B0193DBF80830009347
:101B780019462246404607F08FFA019B00282FD1CC
:101B8800BAF1000F19D0162E0BD1204B2B6020482C
:101B9800FEF732FD00991F4803B0BDE8F04FFEF78D
:101BA80085BD172E01D16B68F0E79BF800305A1EEF
:101BB800012393401F432F60E9E7162E03D1C5F890
:101BC80000A01548E4E7172E17BF9BF800306F6098
:101BD80003F1FF3201231EBF93409F432F60F0E7BC
:101BE8000136182EBED10D4803B0BDE8F04FFFF7FF
:101BF80051BB00BF3C550020D92B0208EA2B020834
:101C0800E32B0208BD2B0208EF2B0208FFFF3F0061
:101C1800FA2B0208EB2B0208032C02082D2B0208D2
:101C2800680B02082DE9F84F05461AF073F9354E8E
:101C38000446D6F80090C0B93348344D344FFEF707
:101C4800DBFC012655F8241059B10B783BB106FA94
:101C580004F313EA090F02D03846FEF7F6FB013405
:101C6800F0E7BDE8F84FFEF7EBBC024629492846E5
:101C780007F012FA78B92848284C254DFEF7BCFC25
:101C880054F8041F0029ECD00B78002BF8D0284614
:101C9800FEF7DBFBF4E72B78DFF870B02D2B03BFE2
:101CA800013504F1FF344FF0010A4FF0000A4FF0FC
:101CB80000085BF8287027B91948BDE8F84FFFF706
:101CC800E9BA22463946284607F0E6F9B0B90123B1
:101CD80003FA08F3BAF1000F0BD029EA03031148FD
:101CE8003360FEF789FC39460F48BDE8F84FFEF728
:101CF800DDBC43EA090333600C48F2E708F1010848
:101D0800D7E700BF402000200B2C020870FB010819
:101D1800D52B0208BD2B0208152C02086CFB010804
:101D28002D2B0208FA2B0208EB2B0208032C0208C1
:101D38002DE9F347214D2248AF6DDFF89480DFF895
:101D48008890DFF890A0FFF7A5FA05F15C0400265B
:101D5800BE4202DB02B0BDE8F087AB6D9E4229DCD3
:101D6800A288D3B2162B18D808EB8303D3F8903285
:101D7800002B08BF4B4621685046FEF766FBE388F8
:101D88005A040CD5E089A3896289218900900D48FD
:101D9800FEF78CFC01361034DAE70B4BEBE71B043B
:101DA80005D5D4E902120948FEF780FCF2E7FEF7F0
:101DB80047FCEFE700239B88FFDE00BFF807002001
:101DC800212C02085C2C0208743502086E2C0208CB
:101DD80064F901084D2C02080148FFF75BBA00BFFF
:101DE800782C0208F7B50346FEF7FEF9044618B149
:101DF800FFF7F2FF03B0F0BD01AA1D491C4F1846BA
:101E08001DF092F92646254640B90B2D18D91949D7
:101E18000B2302461848FEF749FCEBE744B1012CB6
:101E28000AD001AA3946002001341DF07DF9EBE7FC
:101E380007F04CF90546F4E707F048F90646F0E7DD
:101E4800022C0DD1A6F57A73B3F57A7F05D94FF434
:101E5800FA634FF47A720949DCE7094B23F81560F5
:101E6800074B084833F915202946FEF71FFCC1E740
:101E7800BD2C0208AD280208B3280208E236020881
:101E8800F4560020842C02082DE9F34104461AF088
:101E980041F804283DD1631E2546E11C13F8012FA3
:101EA800A2F16100192898BF203A8B421A70F5D127
:101EB800DFF87080271D15F8016B404631461DF08C
:101EC80078F920B1314628461DF073F920B1FFF7A3
:101ED80083FF02B0BDE8F081BD42ECD1204616F088
:101EE80037FB0E480E4CFEF787FB0E4800231A19E5
:101EF80002A952780A44195C02F8081C0133042B21
:101F0800F5D10023694608488DF80430FEF7CEFB6A
:101F1800DFE70028E5D0FFF75FFFE2E7912C020832
:101F2800D44E0020C60902084C2602082DE9F047C5
:101F38008AB0054619F0EEFFC2B232B989490120CC
:101F4800FEF78CFE0AB0BDE8F087052286492846D0
:101F580007F0A2F888B9152006F0D6FF10B181491C
:101F680006F0A2FF814B00221A60DA609A615A6279
:101F78001A63DA639A645A65E4E704227C492846BE
:101F880007F08AF80446002839D12846FEF7B4F944
:101F980006460028D6D019F0BDFF764F5FFA80F8C4
:101FA80057F824501DB97448FFF774F9CAE7424638
:101FB8002946304607F070F801340028F0D1694B03
:101FC800024603F1400619469A705A7003F8042B2A
:101FD8009E42F9D1694B03EBC40494F8EC32984261
:101FE80005DB29466648FEF761FB66487FE0D4F8C2
:101FF800F02252F8202041F820200130EFE7072294
:102008006149284607F048F80446002875D1202180
:1020180028461DF0CEF8064619F07CFFC5B285BBF0
:102028005A48FEF712FA2C46594D214628460134E3
:10203800FEF70BFA0F2CF8D1FEF702FB4B4EDFF838
:102048005C91544FDFF85881002421464846FEF73A
:10205800FCF9DFF850A1002532680123AB40134298
:1020680014BF3946414650460135FEF7EEF90F2DAB
:10207800F2D10134FEF7E4FA082C06F10C06E4D19B
:1020880060E7304601AA4449434E1DF04DF802ADC1
:1020980000283DD0022C15D1029A072A2AD8039984
:1020A8000E2927D80378722B17D06E2B22D10C2338
:1020B80053432E48012202FA01F1C25822EA0102D2
:1020C800C25013E007F002F801AA45F8240031468F
:1020D80000201DF029F80134DAE70C23234C534380
:1020E800012000FA01F1E0580843E0502648FFF7C4
:1020F8001DFF27E7FFF770FEF8E7284601AA2649E3
:10210800254E1DF011F8002402AD78B1052C02D13E
:10211800FFF762FE16E706F0D9FF01AA45F824008A
:10212800314600201DF000F80134EEE7052CEFD110
:10213800029A0F2AECD8039D072DE9D8049C0E2C8F
:10214800E6D8059800F17D03FA2BE1D80699FF2916
:10215800DED8044B03F8225003EB82035C709870BE
:10216800D97042E79D550020972C0208E0550020C1
:102178009D2C020808FB01082D2B020864F90108B0
:10218800A22C020874350208AC2C02084D2602085D
:10219800B42C020838280208BD2C02088E2C02082C
:1021A8009B3F0208B92C0208F0B585B00546FEF73A
:1021B8001BF800285DD030490022012005B0BDE899
:1021C800F040FEF79BBD2D2B03D0A3F13002092A66
:1021D8004AD8052C03DD05B0BDE8F040FCE52846EB
:1021E80006F074FF04AB621C03EB440424F80C0CE7
:1021F80015F8013F303B092BFAD914462B78002BF0
:10220800E1D1062CE7D1BDF904309AB2072AE2D809
:10221800BDF90600A0F2EE2292B240F2DC54A242CE
:10222800D9D8BDF90810A1F2EE2292B2A242D2D8B2
:10223800BDF90A209042CEDC9142CCDBBDF90C50AE
:1022480005F17D04A4B2FA2CC5D8BDF90E40112CB5
:10225800C1DC094E0C2707FB03639880D9801A81DB
:102268009D72DC7205B0F0BD202BB4D10135224639
:10227800C3E70446C2E700BFE05500202DE9F0415E
:102288000546FDF7B1FF064630B100222749012077
:10229800BDE8F041FEF7B8BD6FF00042244928467A
:1022A80006F0FAFE70B9214B4FF47A714FF4FA62D6
:1022B80019805A809980DA8019815A819981DA8146
:1022C800BDE8F081284606F001FF0328044625D81A
:1022D8002846FEF711F8064668B106F0F7FE012514
:1022E80007463046FEF708F810B106F0EFFE25B9AC
:1022F800BDE8F04170E50546F3E7A7F2EE2240F2AB
:10230800DC539A42F4D8A0F2EE229A42F0D8074B56
:1023180023F8247003EB84035880D1E73246032363
:1023280004490548BDE8F041FEF7C0B9BC53002098
:10233800972C0208BF2C0208B32802082DE9F14F98
:102348005A4F5B4E05462846FDF74EFF804638B18A
:1023580057490022012001B0BDE8F04FFEF78EBDBD
:1023680005223946284606F097FE50B95049002202
:1023780001EB001301300C281A60F9D101B0BDE857
:10238800F08F04224B49284606F086FE044628466C
:10239800002C41D1FDF7B0FF81460028EED019F09E
:1023A800B9FDDFF828A15FFA80FB5AF82480B8F15C
:1023B800000F05D1404801B0BDE8F04FFEF76ABFF5
:1023C8005A464146484606F067FE0134054600284D
:1023D800EBD10346002106EB031201330C2B1160ED
:1023E800F9D1E0B218F062F9D0F804E08446BEF101
:1023F800000F0CD141463148314DFEF757F9A2E79D
:102408002B01F41873440FCB84E80F0001359CF8B6
:1024180009309D42F4DBEDE706F058FE0B2806462E
:102428003BD82846FDF768FF054648B306F06BFE23
:102438001F4B03EB061383ED000A01242846FDF722
:102448005BFF054638B106F05EFE194B03EB061339
:1024580083ED010A01342846FDF74EFF054638B1E1
:1024680006F051FE124B03EB061383ED020A01340A
:102478002846FDF741FF28B901B0BDE8F04FABE4AD
:102488000446DBE706F03FFE094B032C03EB061678
:1024980086ED030A3FF45CAFEEE70A490A480B23CE
:1024A800424601B0BDE8F04FFEF700B9972C02088C
:1024B800EC1E00209D2C02082D2B0208A22C0208DD
:1024C80074350208AD280208B328020808FB010881
:1024D8002DE9F7438146FDF787FE064638B100220D
:1024E80037490120FEF758FD03B0BDE8F0834846A0
:1024F80006F0ECFD0B2804465BDC0625454309F194
:1025080001008DF80760FDF7F7FEDFF8B48081461B
:1025180005EB0807464638B106F0D8FD03289EBFEC
:10252800012378718DF807304846FDF7E5FE8146AE
:1025380060B106F0CBFD0D2808D8062303FB046321
:1025480098709DF8073001338DF807300DF10702B8
:1025580039464846FDF7DDFEFDF7CEFE814660B1FF
:1025680006F0B4FD1F2808D89DF80730062202FBA4
:1025780004620133D0708DF807304846FDF7BCFE81
:1025880060B106F0A3FD0D2808D89DF80730062293
:1025980002FB0464013320718DF807309DF8073081
:1025A800062BA1D0002345F80830BB80FFF714FCA8
:1025B8009AE70B23324603490348FEF777F893E777
:1025C800D21F0020AD280208B32802082DE9F04FD9
:1025D80087B00346FDF708FE064620B1FFF7FCFB6F
:1025E80007B0BDE8F08F05AA5B49DFF89891DFF8DE
:1025F80098A1DFF898B118461CF096FD34460546B8
:10260800B0464FF0FF37A5B9544B78B20C2606FBFD
:1026180005F2D118D256824200F081800135062D8C
:10262800F5D1B8F1000F34D14D48394607F0A6F876
:10263800D6E7012E0ED0022E11D01EB9284606F07C
:1026480045FD074605AA444900201CF06DFD0136EA
:102658000546D8E7284606F039FD8046F2E74946A0
:1026680028461CF0F4FD20B93E4928461CF0EFFD31
:1026780008B144F00104514628461CF0E8FD28B989
:10268800594628461CF0E3FD0028DBD044F002043C
:10269800D8E7002C08BF03240023E4B20293CDE955
:1026A80000841A46194617F065FC054610B93946E4
:1026B8002D48BBE7424639462C4807F05FF83946B3
:1026C8002B4807F05BF82B4B1C68204617F032FCB0
:1026D800284617F02FFC002014F07CFA204605F05D
:1026E8001FFD60B1012014F075FA204605F015FDB4
:1026F8000146284605F017FD002014F06BFA28461D
:1027080005F00EFD0028E9D0012014F063FA2846F0
:1027180005F003FD0146204605F005FDDBE74D68A1
:10272800002D3FF47EAF3946134807F027F854B11F
:102738006979A14207D02246104807F01FF8E1B294
:10274800284605F0E4FCEB6A002BB8D00C4807F0EB
:1027580015F80023EB62B2E7BD2C0208044D0020F7
:10276800CA2C02082B320208F22C0208112D02088A
:102778007C2D0208242800202E2D0208462D020850
:10278800662D0208183F0208C72C020823320208E7
:102798002DE9F3410346FDF727FD38B135490022FD
:1027A800012002B0BDE8F041FEF758BCCDE90000B9
:1027B80018465D1C06F08AFC44B2204617F042FC1D
:1027C800064600283CD08DF8024001242846FDF733
:1027D80093FD074628B106F079FC0134ADF80000F6
:1027E800E4B2DFF8948000253846FDF785FD0746FA
:1027F800F8B106F06BFC002258F822108842D3B2D8
:1028080003D00132112AF7D1002358F8232090422F
:102818000FD1022D1CD0032D1FD0012D12D05A1E0E
:102828000F2A03D88DF803300134E4B20135042DA2
:10283800DAD1052C17D802B0BDE8F041FFF7CCBAC1
:102848000446C3E71A1F042AF0D88DF80430EBE7D2
:10285800082BEBD88DF80630E6E75A1F052AE5D88D
:102868008DF80530E0E76B4603CB3060716002B04D
:10287800BDE8F081D24C0020D009020810B504460A
:102888000348FDF7B9FE2046BDE81040FEF702BD3B
:102898003E260208022810B50C4614D8FDF70EFD96
:1028A8000948FFF7EBFF094B094819790131FDF792
:1028B800FDFE21461020FEF7ECF821462020BDE859
:1028C8001040FEF7E6B810BDBB370208E24D002005
:1028D800AA2D02082DE9F04F0F468DB08049064613
:1028E800FDF74FFD0546002840F0BE807D49304683
:1028F800FDF747FD0546002840F0B8807A49304684
:10290800FDF73FFD002805460ABF01240824354687
:102918000FB144F01004754B754E93F80480754F51
:102928000193BE42C0F0A480FDF718FE4046FDF7B3
:10293800C5FC71492846FDF724FD08B144F0200480
:1029480014F0090F00F0C8816C48FFF797FF0020CA
:10295800FDF7FCFE04F01803182B02D16848FFF7B6
:102968008DFF6848684F694EDFF8E8B1FFF786FFCA
:102978006748FFF783FF674B3D781B78664AA5EBEE
:102988000308D8F1000506EB830345EB0805294643
:10299800D3F8A0312046FEF709F93B785E4A06EBEA
:1029A800830329465D4DD3F8A0312046FEF714F97C
:1029B800D5ED007A5A4AF5EE407AF1EE10FA0CBFDE
:1029C800012100212046FEF707F92A465549564DB0
:1029D8002046FEF753FA5548FFF750FF95F90210C5
:1029E800534AB1FA81F149092046FEF7F5F82A461B
:1029F80050492046FEF732F94F48FFF73FFF4F4A4C
:102A08004F492046FEF77AF94E48FFF737FF4E4BFD
:102A18001F684E4BD3F800904FF0000806F5037678
:102A280056F828508DB32B78DBB14FF0010A0AFA1B
:102A380008FA69EA070313EA0A0F14BF0121002103
:102A48002B465A462046FEF7B1F867EA090313EA0F
:102A58000A0F5A462B4614BF012100212046FEF7D3
:102A6800BBF808F10108DBE7012451E702244FE72E
:102A78007388C3F30B021B04D6E9011048BF02EBAD
:102A880042021CF05BFB14364BE7DFF8CCA069EA86
:102A9800070B2F4B53F82580B8F1000F5ED098F83C
:102AA8000030DBB10126AE4019EA060F0AD067EA0A
:102AB800090333425246434614BF012100212046F0
:102AC800FEF774F8374209D01BEA060F4346524610
:102AD80014BF012100212046FEF77EF80135D8E712
:102AE800CC2D0208BB370208B1420208E24D002093
:102AF80028480208484B0208D32D02085A39020810
:102B0800E02D0208EA3702083458002064F9010869
:102B1800433702080C5700201B2E0208EC1E002029
:102B2800242E0208C42900209D550020332E0208B7
:102B38003D2E0208185B00204A2E0208E0550020AE
:102B4800B85A0020502E02082829002040200020D2
:102B580070FB0108582E0208642E02086F48DFF83F
:102B680034A2DFF83492FFF789FE6D4B1F686D4B76
:102B78001B687B40DB43454603930126039A06FA0C
:102B880005F31A4218BFB046674A08BF4FF000085D
:102B98003B4002934FF00C0303FB05234146D3F857
:102BA80008B00CBF52464A465B462046FDF7FEFF7A
:102BB800029A5B46002A14BF52464A4641462046BE
:102BC8003544FEF709F8162DD7D15848584FFFF766
:102BD80055FE00235748DFF8C4C1089304933546CF
:102BE800F219335C12F8011C0CAA1A440DF1300ECC
:102BF80002F8201C16F80C2096440EF8101C2DB173
:102C0800A3EB020EDEF1000545EB0E050136052E9D
:102C1800E6D1002608AB484A8DF8146029462046BC
:102C2800FDF7C4FF294604AB434A2046FDF7D4FF0D
:102C38004248FFF723FE424B13F80B2FB242414A9A
:102C480006BF0121134631463F4A2046FDF7C4FF1F
:102C58003E48FFF713FE3E4A3E492046FEF7FEF97E
:102C68003D48FFF70BFE3D4A3D492046FEF76EFA08
:102C78003C48FFF703FE3C4A3C492046FEF78CF9E6
:102C88003B48FFF7FBFD3B4A3B492046FEF7BCF8B3
:102C98003A48FFF7F3FD21463046FDF7FAFE2107D3
:102CA80028D5019B214630461D79FFF7F3FD2146C3
:102CB8000120FFF7EFFD21460220FFF7EBFD284634
:102CC800FDF7FCFA2E48FFF7D9FD2E48691CFDF7E1
:102CD800EDFC2D48FFF7D2FDA20704D5019B214644
:102CE8001879FFF7D7FD294C294B9C4208D30DB022
:102CF800BDE8F08F019B21461879FFF7CBFDEBE784
:102D08006388C3F30B021B04D4E9010148BF02EB3B
:102D180042021CF013FA1434E6E700BFE335020858
:102D2800585B00203C550020680B02086F2E0208F3
:102D3800C60902081C540020732E0208352B02080D
:102D480066540020582B0208F02702088D38020824
:102D5800D24C0020A45400207A2E0208D84F00201C
:102D6800CC5300207E2E0208D21F00208B2A002080
:102D7800872E0208BC530020AC530020CC2D02083B
:102D88008F2E0208B22E0208BD2E0208284802081B
:102D9800484B0208C12D0208B72D0208D44E002066
:102DA800012197E5002195E501490248FDF764BB3B
:102DB800F40C00200040014001490248FDF75CBBCB
:102DC800CC0C002000340140FFF7F6BF014902484F
:102DD800FDF752BBA40C00200004004002494FF04C
:102DE8008040FDF749BB00BF7C0C00200149024828
:102DF800FDF742BB540C0020002C0140FFF7F6BF42
:102E0800F0B50468324DA30AAB4259D006D8B3F5E1
:102E1800801F53D04A3DAB424ED0F0BD2D4DAB4242
:102E280048D00335AB42F8D104234679B70831B905
:102E38000220B840E568C04380B22840E060264DD3
:102E48000A2000FB037005EB8007C7F85C14C7F87D
:102E58006C2431B1B6080222E168B24092B20A434A
:102E6800E26003EB8301CE001C4906F120020A440C
:102E7800EFF31187502080F3128806F10C00084404
:102E88001C31314450F8046F16B1166002680432E0
:102E98008842F7D100211160FAB282F31188282202
:102EA80002FB0353D3F87C3463B1E36843F00103B6
:102EB800E360B2E70323B8E70223B6E70123B4E7E8
:102EC8000023B2E7E36823F001031B041B0CEFE7C0
:102ED8004B0010004D001000F8070020540C002093
:102EE800234B5343234A10B5234C1268B2FBF3F229
:102EF80003880139013AA04289B292B29BB20ED03E
:102F080004F50064A0420AD0B0F1804F07D0A4F5C0
:102F18009834A04203D004F58064A04202D123F083
:102F280070039BB2154CA04206D004F58064A04201
:102F38001CBF23F440739BB203800F4BC1629842BD
:102F480002850FD003F5006398420BD003F5406368
:102F5800984207D003F58063984203D003F5806355
:102F6800984201D1002303860123436110BD00BFAD
:102F780040420F0000000020002C014000100040DB
:102F880073B504460068FFF7ABFF2168184A0B8841
:102F980043F001030B8002F56F70002350F83350A3
:102FA800A9424FEAC3041ED1224492F8C1538DF8B6
:102FB80004500124002601A88DF805408DF806600C
:102FC8008DF8074013F0BEFC1B2D0AD140F21913EF
:102FD80001A8ADF804308DF806608DF8074013F0AD
:102FE800B1FC02B070BD01330A2BD7D10025DEE752
:102FF80064F901082DE97848204B5A68204BC2F340
:1030080008027AB9EFF3118262B91E491D688E6809
:1030180000BF1A689542F9D11B4BD3F82825D3F87D
:103028002C351AE0EFF31181102282F31288154C27
:10303800A668226812F4803F134A1EBF0120C2F816
:103048002405A6681868D2F82455CBB283F31188F2
:103058000E4BD2F828255B6805444FF47A74A2FB1E
:1030680004BC04FB03CCBBEB06006CF1000119F0B7
:103078007DFDE4FB0501BDE8788800BF00ED00E0B8
:10308800A03E002010E000E0F8070020200D0020FE
:103098002DE9F04FB24FB34C3B682DED028B87B052
:1030A8009B6A0393B04BDA7881469846002A00F071
:1030B800B280DFF8E8A22646FFF79CFF23690546A1
:1030C800002B40F0A280DAF80030039903F1630284
:1030D800A5EB09030B449A42EEDAA368A148984786
:1030E800002800F08D80A14EB6F84830002B40F043
:1030F8009480B4F92620B4F920309D4E9B1AB36110
:10310800B4F92820B4F922309B1AF361B4F92A20C3
:10311800B4F9243006F118079B1A394694F83C2074
:103128003362384614F0C0FC924B1B7813B938460A
:1031380014F073FCDFF86C82CDF810804FF0000BB0
:1031480057F82B3007EE903A8B4B1A78B8EEE78A8F
:10315800D4ED077A012A4FEA8B0A28EE278A06D18E
:10316800B0EE480A1CF02CF9844B23F81B00844964
:10317800326B5AF80100B0EE480A90477E4B1A7835
:10318800022AB0EE408A04D11CF01AF97B4B23F8CE
:103198001B007C4A316C5AF802000592B0EE480ACE
:1031A8008847059A316D10320BF1010B5AF802006D
:1031B8008847049BBBF1030FA3EC010A0493BFD11A
:1031C800039B71499FED717AA5EB09051D44D1E96F
:1031D800002307EE905A561943EBE577F8EEE77AA5
:1031E800C1E9006767EE877A694B6A4A93ED007A0E
:1031F800F8EC016AA7EEA67A4245A3EC017AF5D16C
:1032080007B0BDEC028BBDE8F08F30469847002828
:103218003FF459AF61E705465FE798F80130DFF8FA
:103228008891DFED5D8A4FF0000808EE103A3546C8
:10323800C2464FF47A71B6F8480039F9023FB0F542
:103248007A7F08BF46F828A04FEA880B08BFC5F860
:103258001CA05BF806201A444BF8062007EE903AAB
:10326800EB690133012BF8EEE77AEB6131D1C5ED5B
:10327800047AC5ED037AC5ED058A0128A9F806A0E8
:103288004CD1EB690391012BC1BF03F1FF3307EE6A
:10329800903A95ED067AF8EEE77AD4BFB0EE680A70
:1032A80087EE270A1CF0ACFA039918EE103A6BB3B4
:1032B800F8EEC87AF4EEC07AF1EE10FA26D54FF49B
:1032C8007A73A6F84830354B00225A609A60DA6063
:1032D80096E7D5ED035A07EE103A37EEE56AB8EEF1
:1032E800C77AC6EE076A36EEA57AD5ED056A85ED8A
:1032F800047A77EEC77A85ED037AE6EE276AF0EE70
:10330800667AC5ED066AC5ED056AB6E75BF806306C
:1033180003F5FA7393FBF1F3A9F8063008F10108F5
:10332800B8F1030F05F1140585D1B6F84800012856
:1033380012D1B4F92A10B4F928300091B4F9262032
:10334800174906F0D5FC3B6800200021C3E90C01B1
:10335800C3E91001C3E90E01B6F84830013BB0E7F4
:10336800BC020010941E0020C01F0020780400102A
:103378000000001003030020B53E0020B63E0020E8
:10338800240000103400001020050010BD378635D9
:1033980028050010780100100000000068010010E6
:1033A800D62E02086C010010B21E00202DE9F04351
:1033B800954C256815F0040687B005D0012013F058
:1033C80009FC07B0BDE8F083FDF79DF88F4B002896
:1033D80000F0E78045F40075256083F830658C4A75
:1033E800236892F82920012A14BF43F4802323F488
:1033F80080232360874B1B7843B9256818F014FC99
:10340800002800F0DC8045F4002525600FF010FE50
:1034180040B1256818F02EFC002800F0D38045F450
:10342800000525607C4E236837683A077B4A54BFFD
:1034380043F4807323F48073236012882368632A1B
:103448008CBF43F4806323F480630820236018F062
:10345800F9FA0546002840F0B880132018F0F2FA6F
:10346800002840F0B280092018F0ECFA81460FF0ED
:10347800DFFD28B1002D40F0AB80132018F0E2FAF0
:10348800674B5A789846002A00F0A680654B664A32
:103498001D781DB9654BDB79022B07D1D379002B39
:1034A80000F0988087F0010505F0010523685F07A3
:1034B80005D4B9F1000F02D0002808BF012592F900
:1034C8004D37002B14DDD2F8B0310393D2F8B43164
:1034D80004936946D2F8B8310593012203A813F082
:1034E8003DFB684610F0EEFFB8F80C30984201D862
:1034F800002D71D0236843F400634D4A236012689D
:10350800236891076CD53268920569D443F4005357
:10351800236014F061FA2368002864D143F400435F
:103528002360444B187868B9256818F08BFA25F0A1
:103538007C4323F07F03002B58D0002858D045F453
:1035480080452560122018F07DFA2368002852D0A3
:1035580043F480331720236018F074FA2368002896
:103568004CD043F400331B20236018F06BFA236817
:10357800002846D043F08073236023682E4A23F046
:103588007C4323F07F0303B102231370FFF732FD5E
:103598002A4B1B68C01A0028FFF613AF16F0B0FCC0
:1035A8000FE793F8302525F400752560002A7FF48D
:1035B80016AF012083F8300516F0C0FD0FE725F49B
:1035C800002522E725F400052BE74FF001094EE717
:1035D800012055E7012569E7236823F400638CE798
:1035E80023F4005394E723F4004399E70028A9D172
:1035F80025F48045A5E723F48033ABE723F40033B3
:10360800B1E723F08073B7E798530020F80700204C
:10361800004F0020BD1F00208C4E00207C010010B0
:103628004E200020D0570020484100209C57002001
:103638004C4D002088070020D8540020DC5400207E
:1036480038B5FFF7B3FE2448036823F07C4222F024
:103658007F0203F00401002A37D1002932D143F058
:103668000C0303601D4B1E4CB3F904301D4D0A2298
:1036780093FBF2F31C4AA4F8323513801B4B2968DC
:1036880000221A601A4A92784FF47A7000FB0212EC
:10369800C4F83425174AD279AAB1174B1B68DB073F
:1036A80011D5072016F04AFD2B68C4F83835134B9E
:1036B80093ED000A1BF084FE114BC4F83C051B680F
:1036C800C4F8403538BD0620ECE70029FAD10120BE
:1036D800BDE8384016F06CBD98530020D0020010A9
:1036E800F8070020A03E0020400500104405001007
:1036F800BD1F0020484100208C4E0020B448002007
:10370800B81F0020F8B504460D46FFF773FC0646BF
:103718000F46FFF76FFC821B61EB0703AB4208BF44
:10372800A242F6D3F8BD10B5044614F1FF3400D216
:1037380010BD4FF47A700021FFF7E4FFF5E738B5C4
:1037480004461348FCF758FF124B186805F044FB71
:10375800114B186816F0EEFB16F06CFF0F4B104972
:103768001A780023184693420BDB4FF47A70FFF760
:10377800DAFF0C4B0C4A14B10C490D480860DA60AA
:1037880038BD51F823502D6801332860EBE700BF9E
:10379800FD2E02082028002024280020EC560020B6
:1037A800A456002000ED00E00400FA05FC9F00206C
:1037B800EFBEADDE38B50A4D0A48FDF76BFD286847
:1037C80005F00AFB084B00241C70084B1C60084BD2
:1037D8001C7016F051FF2046FFF7B1FF2C6038BD72
:1037E80020280020092F02082C2800202828002043
:1037F800F020002008B50348FCF7FEFE0120BDE8D4
:1038080008409CE7332F02082DE9F04180460B253C
:10381800013D04D1164B174ADA60BDE8F08100205B
:1038280013F0D8F908F101063227052413F0DAF964
:10383800012004F0A5FE3846FFF775FF13F0D2F912
:10384800002004F09DFE3846FFF76DFF74B1013C7F
:10385800ECD14FF4FA70FFF766FFFA2726B94FF458
:103868007A70FFF760FFD3E70024DFE7013EF5E752
:1038780000ED00E00400FA052DE9F04F8DB014F0DA
:10388800A1FEDFF8B081664BA3EB08034FF00309F4
:1038980001931022002108A81BF074FC019B0793D8
:1038A800604BCDF818801A69120641BF5E4A5A600B
:1038B80002F188325A600CAC012534228DF82C5064
:1038C800DA607E2304F8243D2A46214606A805F03E
:1038D80087FB21462A46002005F09BFB534CADF898
:1038E8000E004FF0000B524B9C423AD3022204A91F
:1038F800002406A8ADF8104005F072FBBDF80E00D4
:10390800022204A905F085FB0CA9022221F8220D48
:1039180006A805F065FB099860B108ABC0F1040280
:10392800214618441BF02EFC089906A805F0FEFA5B
:10393800CDE909409DF82C300A9A23B139490B6921
:1039480043F080030B61B9F101095FD0002AA0D1CF
:1039580098F800307E2B5BD105F071FB00285AD116
:1039680056E062888DF815B0C2F30B06B31DADF8AA
:1039780010302388C3F30B011B0B8DF8143013048C
:10398800ADF812101BD4062204A906A805F028FBDE
:10399800BDF80E00062204A905F03BFB3246ADF83F
:1039A8000E00616806A805F01BFBBDF80E006168F3
:1039B800324605F02EFBADF80E00143493E70027CD
:1039C8003D460135EDB2062204A906A88DF815502A
:1039D80005F006FBBDF80E00062204A905F019FB48
:1039E8006368ADF80E0003EB070A3246514606A895
:1039F80005F0F6FABDF80E003246514605F009FB0F
:103A0800032DADF80E003744DBD1D6E7002A9FD04E
:103A18000520FFF7F9FE14F0BBFD0DB0BDE8F08FEF
:103A280000000408002002402301674528480208D6
:103A3800484B020800F00308214A1368590710B5DB
:103A48003DD5204C23F00403136094F850358BB314
:103A58001D4BD4F838251B689B1A4FF47A72B3FBB8
:103A6800F2F3092B26D9D4F844251344C4F8443575
:103A7800164B93ED000A1BF0A3FCD4F83C35C01A92
:103A88006423B0FBF3F0D4F848351844104BC4F85D
:103A980048051A6840F60203934309D10D4BD4F840
:103AA80040251B689B1AD4F84C251344C4F84C35A0
:103AB800FFF7E2FE0520BDE8104016F03FBB10BD41
:103AC80098530020F8070020A03E0020B4480020AA
:103AD800504D0020B81F002010B504460748FCF7D9
:103AE8008BFDFCF73BFDFFF7C7FE05492046FCF7B9
:103AF80048FC10B9BDE8104021E610BD4C2F020863
:103B0800122E020808B50448FCF776FDFFF7B4FE4C
:103B18000020BDE8084012E6622F02082DE9F84FA0
:103B28002DED048B14F04EFD724C734BA4F1140769
:103B38009F42C0F08C80714D714F2879714CFCF711
:103B4800BDFB714B5A899989914224BF00225A8141
:103B5800198ADA89914224BF0022DA813A68918F62
:103B6800D08F884224BF00219187227C617C9142BA
:103B780024BF00222274654A65491068014011601B
:103B880064490978012902BF6349014011606A79D3
:103B98000AB10122DA70DFF88481DFF898B10026D3
:103BA8003546C2464FF0FF0936F80820530803F09F
:103BB8007733900800F03330D31A1B1AD00800F07E
:103BC80011301B1A03EB231312F0010103F00F331A
:103BD80093FBF9F0C0EB002018BF0135A3EB0003FD
:103BE80018BFEDB2012B0ADD022B0ED111B112EA7A
:103BF8000B0F04D10AEB060006F04AFA28B1083682
:103C0800302ED1D1013D022D06D90D2005F07CF9C9
:103C180010B1424905F048F9414D287816F046FDA3
:103C280008B903232B703F4A538B118B643B8B429B
:103C3800A8BF0B4613833C4B1A7A042A00F28380F0
:103C4800DFE812F07A00590160016C01730134F960
:103C5800123C002BA7BF4FF00008C1464FF00308E5
:103C68004FF001094FF0000A09EB0A02D2B2904561
:103C780001D2143459E72D4E3588002D00F06581A6
:103C88002B4B7019984280F06081052D40F25D81C0
:103C980034F8141CB6F802C0C1F30B018C4526D1C8
:103CA800717901F00301914221D15146384696F8C5
:103CB80004B005F01DF934F8141CBBEB113F13D107
:103CC80034F812CC54F8100CCCF30B01AA1F8A421A
:103CD800A8BF0A461CF4004F1CBF5FFA8AF501FB17
:103CE8000500B11D1BF02AFA0AF1010ABCE70646D5
:103CF800C2E700BF3C480208484B0208E24D0020DA
:103D080080560020D04D0020C01F002040200020F9
:103D1800F69CFBF9D44E0020B69CFBF9D24C00204F
:103D28000C5700204E2000208856002001F0030880
:103D380000000408BC83FFFFDA88B2F5F57FA8BF4E
:103D48004FF4F572DA80834B834D186817F01CFF27
:103D58003022002181481BF015FA17F039FE297925
:103D68007F4B6422C82012FB0101996069797D4D5F
:103D780012FB0102DA600022C3E90422C3E9062229
:103D8800C3E9082283F8282083F829205A859A85D0
:103D9800DA854FF47A721A86B4F90430002B40F0B1
:103DA800D080B4F90630002B40F0CB80B4F908304D
:103DB800002B40F0C680B4F90A30B3F5805F40F0BC
:103DC800C080B4F90C30B3F5805F40F0BA80B4F924
:103DD8000E30B3F5805F40F0B4802B6823F4007395
:103DE8002B6013F0E7FF604ADFED607AB2F88415C4
:103DF8005F4B604CDFF88C81C4F8348007EE101AF2
:103E0800B8EEC77AB2F88615C7EE276A40F20556AB
:103E180004F11C002063268707EE101AB8EEC77A53
:103E2800C3ED006AC7EE276AB2F8881507EE101AC4
:103E3800B8EEC77AC3ED016AC7EE276AB2F88A15E9
:103E480092F88C251A74142207EE101AB8EEC77A65
:103E5800C3ED026AC7EE276A0021C3ED036A1BF0AF
:103E680091F904F1A40014220021C4E92E08A4F851
:103E7800C0601BF087F904F59670C4F84001C4F8D7
:103E88004481A4F84861142200211BF07BF92B68B7
:103E9800DB0601D516F078FA3C68DFED378AB4F90D
:103EA800543007EE903AF8EEE77AB2EE049A87EECD
:103EB800890A20EE280A05F029FEB4F9563007EEE3
:103EC800903AF8EEE77AB0EE408A87EE890A20EE5B
:103ED800280A05F01BFE294B28EE000A002283ED74
:103EE800150A274B1A700FF0B1F8BDEC048BBDE82A
:103EF800F84F14F04DBBDA8840F63C718A42A8BFEF
:103F08000A461FE7DA88B2F5FA5FA8BF4FF4FA52FB
:103F1800B2F5FA6FB8BF4FF4FA6213E7DA88B2F570
:103F28007A5FA8BF4FF47A52F2E7DA88B2F5FA4F0F
:103F3800A8BF4FF4FA42B2F5FA7FB8BF4FF4FA724D
:103F480000E72B6843F400734AE75146384604F00B
:103F5800CFFFC9E6845600209C5700204C0D002056
:103F6800004F00208C4E0020F807002000401C461F
:103F780050050010D802001035FA8E3C00000010E1
:103F8800C002001070FD010810B50446FCF796F950
:103F980018B1FFF771FCFFF7C1FD601CC0B2BDE8A6
:103FA800104016F005B910B50C4C03461846FCF73E
:103FB8001BF938B10A4B0B481979BDE8104001319B
:103FC800FCF774BB184605F081F80138022804D8BC
:103FD800C0B2FFF7D9FF2346E8E710BD74350208E1
:103FE800E24D0020B22E020808B5FFF745FCFFF7A6
:103FF80095FD0120BDE8084016F0DAB82DE9F04F2C
:10400800A84CA94B627A1F688FB0CDE900010293D2
:104018002AB1A648436A984780F001006072237A63
:10402800DBB1DDE90001002344F620628018237229
:104038004FF0000359410B469D490D780246C4E9EB
:1040480004235DB39B4BDDE900671A680023BB427C
:1040580008BFB24201D2013D0D70974B03931A6815
:1040680012F4805F06D0002017F0ECFC10B9032092
:10407800FFF7E2FC914D2878022800F0D980042847
:1040880000F03281012840F0398104F0B1FE2B782C
:10409800012B40F0F180C0F38F00EBE0834EDFF896
:1040A8003482012384F88E35B14633789D4219DB7A
:1040B80094F88E25824B002A00F0AF802278002ADF
:1040C80000F0AB80029A596912681A61521AD968CD
:1040D8008A4202D9012283F829207A4A13780133C7
:1040E8001370BAE7032DD6BF08EB0503E9B2597878
:1040F800D9F81C3030469847032D4FEA850218DC62
:10410800B8B171498B18895A5B884FF47A7C401A88
:104118005B1A0CFB00F090FBF3F0604480B240F2B5
:10412800EE239842B8BF184640F6CA039842A8BF83
:104138001846B8F81C30DFF8ACC183424FEA450195
:10414800624B03D8B8F81EE086455ED25CF802C020
:10415800585ABC4505D2032D03DC4FF0000C84F8F7
:104168008EC599F818C00FFA80FEBCF1000F51D027
:10417800544B93F800C00523BCFBF3F303EB830314
:10418800ACEB03032A4452FA83F204EB420294F89C
:104198004436A2F890E52BB9BCF1040F31D90123BC
:1041A80084F844364A4A4FF00A0C0CFB05F302EB3C
:1041B800030C985EBCF902A0BCF90830BCF90620D3
:1041C800BCF904E08245BEBF84465046E2469342AD
:1041D800BEBF94461A4663468242B8BF024653455C
:1041E800A8BF53461BB27345C8BF184612B2C4BF16
:1041F800734686467245A8BF72469342B8BF1346B7
:1042080098B2324B585201354FE707F5967E4CF875
:1042180002E0A6E723F801E0F5E7029A19691268B7
:104228005A61521A99688A427FF657AF002252E7BC
:10423800284BDB7C002B61D0013B244ADFED266A4A
:1042480032F91330A3F57A73B3F57A7FA8BF4FF428
:104258007A7323EAE37307EE903AF8EEE77A87EE8B
:10426800A67ADFED1E7A67EE277AFCEEE77A17EE7C
:10427800903A98B214F07EF81649194A487D20B150
:104288001388C3F57F730333138010880B7D642173
:104298004343B3FBF1F340F2FF318B42A8BF0B4617
:1042A80013802BE0F8070020A03E0020384F0020A4
:1042B800FC4E0020F84E0020504D0020BE4E00203D
:1042C800004F0020684F0020BC5300206A4F002098
:1042D800880D0020D44E002000007A4400C07F449E
:1042E800BC4E0020904F00204D4B009A1B68D31AFB
:1042F8004C4A934202DD4C4B00221A8046A3D3E974
:104308000023DDE900018B4208BF8242474D03D2FA
:10431800AB780BB90123AB70AF78454E002F00F096
:10432800A180E878002840F09D8095F82930012B7D
:1043380042D1122017F086FB80F001005FFA80F866
:104348003C493368CA8903F0040B8946E2B13A4F05
:104358003A49C88AB7F90010091A81EAE17CACEB3E
:10436800E17CB7F90210B7F90470091A0029A7EB24
:104378000007B8BF4942002FB8BF7F4261440F44CD
:10438800974234BF00270127B8F1000F16D113F068
:10439800080F0CBF4FF0000A4FF0030A95F82830B9
:1043A800072B59D8DFE813F00D00610194019B0138
:1043B800EE010C021E0239028046C1E74FF0000AE6
:1043C800ECE7BBF1000F3DD017F02EFC012807D118
:1043D800029B1A68B9F80230642101FB0323AB6120
:1043E800B8F1000F38D1B9F8023023B1029BAA699D
:1043F8001B689A4203D3124B1B68190606D5052081
:1044080017F0A4FA40F6B8336B62C7E7012385F8C2
:104418002830C3E7AFF30080404B4C000000000099
:10442800E820002060E31600BC4E0020004F00206A
:10443800985300209C5700206A4F0020D44E00203B
:104448008C4E00204FF40070B8F1000F40F00A8144
:1044580017F06AFA0023AB61BAF1000F02D0504698
:1044680015F06CFE17F0E0FB3368DFF80C83B94FEA
:1044780013F0040F814621D0039B1B68D8061DD575
:10448800B54B1B68D90619D498F80030002B00F0FA
:10449800E881BB78B9F1000F40F0D181002B00F022
:1044A800E381029B1A68D4F834359B1A002B80F2FA
:1044B800DB810120FFF7C0FA84F84596029BA74AE2
:1044C80097F801B097F800A0A54F118BD3F800C05A
:1044D800B7F90030528BB7F902E08B42CCBF02200B
:1044E80000209342B8BF40F001007145B4BF0823D3
:1044F80000231843B7F90430B7F906707245CCBFEA
:104508004FF0040E4FF0000E40EA0E009942B4BF7F
:104518004FF0200E4FF0000E40EA0E009A42CCBF3A
:1045280010230023B942B4BF802100211843BA42A6
:10453800CCBF402200220143D4F8483641EA0207A2
:104548009F4284F8467640F0968194F84C36F92BD1
:104558000AD8D4F85026ACEB0202132A04D9C4F8BE
:1045680050C6013384F84C3698F80030C4F84876C1
:104578005BB91846009317F065FA009B002800F015
:104588007C8184F85436FFF75BF8172017F05AFA45
:1045980010B10520FFF750FA94F84C36142B24D1AB
:1045A80098F80030A3B15F2F12D16B4B1B68DB0664
:1045B80006D5039B1B68DF0602D5BAF1000F14D19C
:1045C800336813F0040500F07B810220FFF734FA0A
:1045D80033685D0709D4D4F84836572B40F0768104
:1045E800604B4FF47A72A3F84820002506AF2022CA
:1045F800294638460595DFF884811AF0C3FD08F18D
:10460800020A05EB080B9BF802209BF803309A423C
:104618000FD20AEB05019BF8010017F0B5F940B17C
:104628009BF800300EAA134413F8202C013203F82B
:10463800202C0435502DE4D1DFF84481002515F8ED
:104648000820002A00F0C18194F855167B5D0129E5
:1046580040F0B8819A4240F0B881294605A805F093
:104668003BFBB2E117F04EF9F4E6B8F1000F01D0C8
:104678000723CCE6B9F8101099F8073089B13A4AFF
:104688001088642242438A420BDA384A12681206BA
:1046980007D5314A126802F00302032A08BF99F8C5
:1046A8001230012B3FF4ABAE03D3022B05D002200E
:1046B80000E0042017F04AF970E6032017F046F9E5
:1046C8002B4A012313740EF0CBFD10F0E9FA65E6CE
:1046D800B8F1000F3FF4C0AE002FC9D1BCE6B8F165
:1046E800000F08D03FB1224A002313740EF0B8FD22
:1046F80010F0D6FABCE71E4A137CBBF1000F18BFB6
:104708004FF0040AB3B113781A491C2202FB0312B2
:10471800B2F82A2402F4027262B10E2B04D147F2D5
:1047280030536B62052372E6182BF8D0BBF1000FEB
:10473800F5D091E60E4A002313740EF091FD10F0A7
:10474800AFFA042017F002F9BBF1000F7FF426AE90
:10475800E5E700BFBD1F00208C4E0020D44E00208E
:104768006A4F002078040010342000204C4D0020AF
:104778004841002064F9010888070020D84F00202C
:10478800B0570020B8F1000F05D017B1072385F8FE
:1047980028303B4600E0434699F80620BBF1000F5D
:1047A80018BF4FF0040A22B1029AE96912689142CF
:1047B800B5D3BBF1000FB2D0002B7FF4EFAD4BE6C1
:1047C8003368062043F080033360FFF735F9029B16
:1047D8001A686B6A13442B62062385F82830002375
:1047E8006B71DBE5029BB8F1000F11D01B682A6AD8
:1047F8009A42BFF431AE704B187820B917F022F9FD
:1048080000287FF429AE336823F0800333602FE754
:104818001A686B6A13442B621EE6029B1A68B9F881
:104828000230642101FB0323AB614FF400700023C5
:1048380085F828302B716B7117F064F8AEE53BB141
:10484800029A12684FF47A7101FB0323C4F83435D5
:1048580094F84536002B3FF431AE15F05DFC00238B
:1048680006E0B9F1000FF3D1112015F067FC012320
:1048780084F8453622E6002374E633685A071BD5C8
:10488800122017F0DFF8B8B92378ABB12B799BB9B0
:1048980094F854360133DBB2032B84F854367FF690
:1048A80074AEBBF1000F03D1B9F1000F7FF46DAE08
:1048B8000420FFF7C1F868E6002384F8543664E65C
:1048C800102015F03BFC84F84C5681E6792B07D173
:1048D8000EF0C0FD00280CBF0D200C2015F02EFC9A
:1048E800D4F848367A2B07D10FF002FD00280CBF08
:1048F8000D200C2015F022FC039AD4F848361268D3
:1049080050070FD55D2B09D05B2B09D05E2B09D141
:1049180003200138C0B2FFF737FB66E60120F8E74D
:104928000220F6E7562B01D1FFF75EFB98F800301E
:10493800A3B1224B1B68D9060CD5039B1B68DA066A
:1049480008D5BAF1000F05D0B9F1000F06D0FEF76F
:1049580077FE4AE6D4F848366F2BF8D0D4F84836B4
:10496800972B04D1164B4FF4C8721A803DE6A72B3B
:1049780005D1124A136843F00403136035E6BB2BD4
:104988000AD16FF00101002013F046F9FFF72CFB64
:104998000A2384F84C3628E6B72B01D10221F2E726
:1049A800BE2B03D100216FF00100EDE7BD2B7FF492
:1049B8001CAE00210220E7E7880700208C4E00206B
:1049C800884E0020002B7FF448AE0135202D7FF45F
:1049D80036AE5B4B059A1A605A4B1D78002D40F095
:1049E800CE80DFF87881584A4FF00C0B2B464FF0F9
:1049F800010A05EB080715F808007978884224D2DF
:104A08003946B8780393009216F0BEFF009A039BCC
:104A1800D8B197F805C0F9780BFB0C4E013901EBBA
:104A28004101DEF85405114481420ED0CEF85415E8
:104A380094F8561638798EF85C050AFA0CFC21EAC7
:104A48000C0CCEF8583584F856C60635482DD0D10A
:104A58003E4B1D68029B1B680293237803933C4BD3
:104A68000027A3F2545A0C237B43394A995800294A
:104A780000F0818091F80080B8F1000F7BD01344DA
:104A880002985A68821A002A0BDB00F5FA725A60FB
:104A9800012202FA07F094F8562622EA000284F866
:104AA8005626039A002A66D04A78002A40F0718177
:104AB8009AF8562600921A7A26480432D2B230F969
:104AC80012C0254AD28A02F1C80EF44531DD91F8A8
:104AD80002B0009A3A41D3074DD4BBF1000FCCBFC6
:104AE8000220012015F064FBA8F102021D2A00F241
:104AF8005081DFE812F0450174018101B101E7013D
:104B080008022A024C025C026C024E0181019101EA
:104B1800E70108022A02F8011A023C025601600164
:104B28006A019C019C01A701DD017C028D029A02A9
:104B38009F02C83A944513DA8B78C3F1000BC8E793
:104B4800D4570020F0200020B0000208845600202E
:104B58004C0D00206A4F0020D44E0020D21F0020A8
:104B680001220099BA4021EA02028AF85626029ADE
:104B780002F5FA725A600137042F7FF474AF0120EE
:104B880016F060FFDFF82483B94D38B916F0CEFD72
:104B980020B90EF04BFB002800F04F82D8F8003007
:104BA8009C0740F14A822C6814F0010440F04A82C4
:104BB800012016F0B9FE022016F044FF002800F08C
:104BC8004382002C00F04082012016F09BFE2B68E7
:104BD800980702D4022016F0A7FE192016F032FF1B
:104BE800A44F002800F034823B68590640F1308217
:104BF8002B689A0403D44FF4005016F095FE1A203F
:104C080016F020FF002800F028822B685B0403D4EC
:104C18004FF4804016F088FED8F800309C0716D56F
:104C2800042016F00FFF002800F01C822B6858079C
:104C38000DD4914B0A22B3F9043093FBF2F38F4A57
:104C480013808F4B002204201A6016F06DFE3B681B
:104C5800D90616D50A2016F0F5FE28B10EF0E6FAA8
:104C680010B916F063FD40B133685A0700F1FE81B0
:104C7800FBF749FC002800F0F9814FF4807016F02A
:104C880053FE2B68DB0503D433685C0700F1F3811E
:104C980015F070FC7B4B1B7803F0EF02082A01D05B
:104CA8000E2B02D1402016F02DFE1C2016F0CAFE55
:104CB8002C6804F48064002800F0288233685907BF
:104CC80040F12482704F002C40F008826F4DA046BE
:104CD80015F022FB04EB44060134835D07EE903A9D
:104CE800F8EE677AC5ED037A15F016FB3044437881
:104CF80007EE903AF8EE677AC5ED047A15F00CFBEA
:104D08003044032C837885F8088007EE903AF8EE53
:104D1800677A3B68C5ED057A6B6005F8188BD7D1C3
:104D28005B4C482204F5CB6104F5D4601AF006FA0E
:104D38003B68C4F8E8364FF4806016F0F5FD554B33
:104D48001B685A0515D5544B1B7A002B40F0E78198
:104D5800524B1B685B0740F1E881514B514E0022D2
:104D68001A704FF44F7012F033F90546002D40F0D9
:104D7800E181474B012283F8EC260FB0BDE8F08FA4
:104D88002A7A02EB0B03642BA8BF642323EAE3739C
:104D98002B729AF856260123BB4013438AF85636DD
:104DA800E9E66A7A02EB0B03642BA8BF642323EAC3
:104DB800E3736B72EDE76A7B02EB0B03642BA8BF0E
:104DC800642323EAE3736B73E3E7AA7B02EB0B0329
:104DD800642BA8BF642323EAE373AB73D9E76A782B
:104DE80002EB0B03642BA8BF642323EAE3736B7005
:104DF800284616F0C9FECCE7EA7A5A44B42AA8BF76
:104E0800B422062AB8BF0622B8F10D0FEA7203D100
:104E1800254B01221A70BCE7AA7A02EB0B03B42BCC
:104E2800A8BFB423062BB8BF0623AB72F0E7EA7B12
:104E38005A44642AA8BF642222EAE272B8F1190F20
:104E4800EA73A6D02A7C02EB0B03642BA8BF642369
:104E580023EAE3732B749CE72A7B02EB0B03B42B46
:104E6800A8BFB423022BB8BF02232B73D0E700BF1F
:104E7800A05600208C4E0020D002001040050010E3
:104E8800440500100C570020A03E0020500E0020C2
:104E9800F8070020504D0020FC20002098530020E7
:104EA800D04C0020AC500020C00200104C4D002017
:104EB8006A7C02EB0B03642BA8BF642323EAE37329
:104EC8006B7466E715F028FA009015F025FA009A39
:104ED800D2785A44C82AA8BFC82222EAE272B8F196
:104EE8000F0FC27094D015F017FA804615F014FA17
:104EF80098F8002002EB0B03C82BA8BFC82323EAAD
:104F0800E373037084E715F007FA009015F004FACC
:104F1800009A12795A44C82AA8BFC82222EAE27223
:104F2800B8F1100F02713FF473AF15F0F5F9804630
:104F380015F0F2F998F8012002EB0B03C82BA8BF73
:104F4800C82323EAE373437062E715F0E5F900909C
:104F580015F0E2F9009A52795A44C82AA8BFC82223
:104F680022EAE272B8F1110F42713FF451AF15F025
:104F7800D3F9804615F0D0F998F8022002EB0B031C
:104F8800C82BA8BFC82323EAE373837040E715F052
:104F9800C3F9804615F0C0F998F8062002EB0B0318
:104FA800C82BA8BFC82323EAE373837130E715F041
:104FB800B3F9804615F0B0F998F8072002EB0B0317
:104FC800C82BA8BFC82323EAE373C37120E715F0F1
:104FD800A3F9804615F0A0F998F8082002EB0B0316
:104FE800C82BA8BFC82323EAE373037210E75D49FF
:104FF800B1F92E2002EB0B03B3F5FA6FA8BF4FF4FB
:10500800FA63B3F57A7FB8BF4FF47A73CB85C0E6FD
:10501800544991F9342002EB0B03642BA8BF642395
:1050280023EAE37381F83430B3E60021584612F0DE
:10503800F3FDAEE659460020F9E7012016F062FCC0
:105048000124B8E50024B6E5022016F05BFCC4E5AF
:105058004FF4005016F056FCD1E54FF4804016F09E
:1050680051FCD9E5042016F04DFCF0E54FF48070B2
:1050780016F048FC05E63C68B9F1000F2BD13A4B15
:10508800D3F8008018F4800F03D1142016F0DAFC4E
:10509800E8B1364B1B79D3B9354B364ADB8AB2F9BE
:1050A800020003F11801814208DB183B984205DB36
:1050B800B2F90020914201DB934204DD18F0100F91
:1050C80009D0E00607D444F020043C60E2E524F06F
:1050D80020043C60DCE524F02004F6E7264C3D681B
:1050E800D4F8E83641F28732EB1A93427FF627AEBE
:1050F800482204F5CB6104F5D4601AF01FF804F5D2
:10510800D46015F017F9C4F8E85618E614B11B482E
:1051180015F010F94FF4806016F0F4FB0FE610203C
:1051280016F090FC00287FF418AE04F0BBFF13F0D3
:1051380077FF1EE60024A3599D4204EB060707D11A
:10514800284614F002FFDC22002138461AF01AF82B
:10515800DC34B4F5257FEED14FF44F7011F038FFF1
:10516800054603E64E200020504D0020004F002049
:10517800D44E00206A4F0020F8070020980E002027
:10518800C24BC34A1B682DE9F04F9B6AC14E07EE1C
:10519800903A2DED0C8BF8EEE77A33609FEDBE9ACE
:1051A800BE4B97B067EE897A5F79C2ED007A044604
:1051B8000D460496019203930FB9FDF769FF039B0F
:1051C8005B79022B09D0B64B1B68990705D515F0FA
:1051D800E5FA2046294615F09CFEB24B02935A790F
:1051E800002A00F0C582B04BB04D1B68B5F90040ED
:1051F80013F0100340F042820E93ADF83C30AC4BF4
:10520800AC491A68AC4BADF83E40D88AAB4B1B880A
:1052180012F4805F08BF1846EB79A94D03EB4303EE
:105228005A00002300B21E469C182C44A478012C76
:1052380000F06B82C0F06282022C00F06C820133B5
:10524800042BF1D1FEF7B2F89B4BDFF8689293F884
:1052580020309C4D002B65D095F8ED2695F8EC464E
:105268006AB9FBF7A7F99FED980A13460121024690
:1052780005F5DE6004F052FC012385F8ED36049B49
:10528800924893ED000AB8EEC00A02F049FD904B2F
:10529800BDEEC00A198910EE103A91FBF3F1481CD3
:1052A80000B2A5F80C07002C00F02083854CB5F956
:1052B8000E87DFF800A2002304F5E26E04F5E36729
:1052C8003AF913C037F813603EF8132027F813C0D3
:1052D800ACEB060612FB08F292FBF0F232442EF811
:1052E80013200133042BEBD1A4F80E17754AB2F939
:1052F8000E0700284FF0000340F3FE82B2F90C4776
:1053080002F5E36602F5E26232F8131036F813701C
:1053180011FB00F191FBF4F1791A29F8131001330C
:10532800042BF1D1674F604E97F8EC86694CB8F1C1
:10533800000F00F00981684B1A6812F0040F9A46B2
:1053480040F0DD82E37933B10722D4F8181104F56F
:1053580080700EF049F9614BDAF800201B68D7F825
:105368002417C7F82437500711D55B1A07EE903A6F
:105378005B4A9FED5C7AD4ED4C6AF8EEE77A67EE0B
:10538800877A92ED007AA6EEA77A82ED007AE37921
:105398005BB13368DA0708D597F828372BB90E20A0
:1053A80014F0CCFE012387F82837677B162016F007
:1053B80049FB17B108B90123A373162016F042FB65
:1053C8006073182016F03EFBE0730DF049FF0FF0F4
:1053D80067FC2378444A1C2101FB0323B3F82A7491
:1053E8003B0540F1C682414B1B68980500F1C1821C
:1053F8003F4B93F803B0336813F0100F2D4B00F0B8
:10540800BA825946B3F9020004F08BFA00B20028B8
:1054180000F0A682374B9FED380A9B8A404207EE80
:1054280010BA434307EE903AB8EEC77AF8EEE77A37
:1054380030EE470A012087EE800A0EF02BF843462B
:10544800F904E37240F10F83284B1B689A0500F1B9
:105458000A83274BB9F9000093F802B0594604F0C3
:1054680060FA3368DB060FFA80FA40F1AE821AF16F
:10547800000318BF0123BF04A37240F1FA821B4B3B
:105488001B6813F4007340F0F48237E0BC0200108C
:105498009C560020D41E0020BD378635E24D0020E2
:1054A8004C4D0020004F00208C4E00209C570020BF
:1054B800504D002092560020D44E002088560020DF
:1054C800780D0208F8070020F304353FE80E0020A5
:1054D800384F00204841002098530020A03E00206B
:1054E800B44800206F12833A64F90108A0560020DE
:1054F800F25700204E2000200000FA43326812F0D4
:10550800100240F0B282864B8649B3F9043089789C
:10551800002BB8BF5B428B4240F3A982D4F8183104
:10552800C4F84C3184F80C8023787F4A1C2101FB95
:10553800032340F6B800B3F82C7420EA070016F0ED
:10554800E1F9384616F0F0F9002785F8EC760CF00A
:10555800AFFBFDF74FFD0B46316821F0800232604A
:10556800724A83461068724A10F0040040F0A28222
:105578001074704B6A4C1B78BBB16F4BB3F90620A3
:105588006E4B1B8B9A4210DC6D4B1B78012B01D0A4
:10559800192B02D16B4A527A3AB90E2B05D003F077
:1055A800EF03082B1CBF0023A3803768664BB4F9B0
:1055B8000600B3F858A0DFF8A4B117F01007984612
:1055C80042F001815A4B584A1B781C2101FB0323E6
:1055D800B3F82A34D90500F1B385039B5B7A002B15
:1055E80041D05A4A126892073DD01BB208EE903A51
:1055F800574B1B88039307EE903AC01AB8EEE79A08
:1056080007EE900AB8EEE78A15F08AF89FED517A0E
:10561800039BB4EEC70AF1EE10FAF7EE007A00F138
:105628009385B4EE670AF1EE10FAC8BFB0EE670AC8
:1056380087EE807A46494988F8EEE88A9FED466AFF
:10564800C8EE866A37EE677AE7EE267AA8EE279ADA
:10565800FDEEC97A17EE902A934203DC91420B467D
:10566800A8BF1346E380B4F9063053451FBFA8F816
:1056780058303A4B01221A7002F0CFB8384B1E68E6
:10568800B5F90830B6F9540000EE103AB8EEC00A81
:1056980014F040FFB5F90A30ADF8380000EE103AC2
:1056A800B6F95600B8EEC00A14F034FF2D4BADF829
:1056B8003A001B681B7B07EE903AB5F90C30F8EE00
:1056C800E77A06EE903AB2EE047A67EE877AF8EE59
:1056D800E66A9FED257A76EEA76A77EEA77A66EEF8
:1056E800876A86EEA77ADFED217A77EE677AF1EEA0
:1056F800677AFDEEE77A17EE903A7EE5029C04EBB6
:105708004304648D21F8134099E5032B14BF21F855
:105718001360C88093E50EAC34F81340F2E700BF7D
:1057280092560020F257002064F90108985300208F
:1057380048410020880700206A4F0020D44E0020EE
:105748000C5700204420002000000010A056002024
:10575800885600209A99193F0000C842C0020010DC
:10576800805600208456002000007A440000FA4346
:10577800C14BC24EB3F90000C14BC24C1F68C24BAB
:10578800DFF8F4B21D683378059317F4807A0CBFFC
:1057980095F8088095F80D801A464146FAF752FDAB
:1057A800059B2080414681461A46BBF90200FAF75C
:1057B80049FD80466080BBF90400BAF1000F00F093
:1057C8009180A97B7278FAF73DFD404202B2A2802F
:1057D800BAF1000F14D0EB7B297C687C13FB09F924
:1057E80011FB08F8642310FB02F099FBF3F998FB0E
:1057F800F3F890FBF3F0A4F80090A4F80280A080DE
:105808009D4BB3F90620A14B198B8A426CDBB2F58C
:10581800FA6FA8BF4FF4FA62521A4FF47A735A43D8
:10582800C1F5FA616425B2FBF1F2994992FBF5F3EF
:105838005E1C31F9130031F916106FF0630606FB90
:105848000323029A091A4B43127993FBF5F3034495
:105858001BB2E3803AB9029922884A8562888A8510
:10586800A288CA850B867A067FF5ECAC894BDFEDFA
:105878008A7AB3F904300A2293FBF2F3874AB2F822
:1058880032259B1A1BB208EE103AB8EEC88A28EEE9
:10589800278AB0EE480A04F039F9F0EE408AB0EEF3
:1058A800480A04F0D1F8B4F9023007EE103AB4F916
:1058B8000030B8EEC77A06EE903A67EE407AF8EE16
:1058C800E66AE8EEA67A20EE260AFDEEE77AA8EE6A
:1058D800870A17EE903ABDEEC00A238010EE103A00
:1058E8006380AFE4697A6DE70A4695E7B5F80E3745
:1058F800013BA5F80E37F9E4A2F80E3712E515209A
:1059080016F0A0F840B397F82037A3B15C4B1B689A
:1059180013F4216B0FD1E3796BB13368D4F8181104
:1059280013F0010F0CBF0722052204F580700DF05B
:105938005BFE87F820B73368DB077FF50CAD584866
:105948000EF0C0FDC4F8A40155480DF07BFEC4F864
:10595800A8010DF02FFEFEE4012387F82037EAE7BF
:10596800E37A002B3FF46CAD00209FED4E0A0DF05A
:1059780091FD002364E54C4AB3F90600B2F908A08A
:105988005946A0EB0A0003F0CCFF00B20028E7D08C
:10599800464B9B8A00FB03F0454B0CDD5B88A3EB71
:1059A8000A0AAAEB0B0B90FBFBFB07EE90BAB8EECA
:1059B800E70A012041E51B88AAEB030AAAEB0B0BB7
:1059C80090FBFBF007EE900AF1E75946B9F902009F
:1059D80003F0A7FF00B210B9BAF1000F37D0334B6C
:1059E8009A78012A31D15B8AD4ED475A94ED485A06
:1059F800D4ED054ACBF5FA7B584390FBFBF007EE54
:105A0800900A03FB0AF0B8EEE77A90FBFBF007EE8A
:105A1800900AF8EEE77A25EEE76A67EE857AA7EE50
:105A2800056AE7EE257AC6EE246A94ED406A76EEBA
:105A3800866AC4ED4D6AD4ED066A87EEA67AD4ED7F
:105A4800417A77EE277AC4ED4E7A434613E5A37A76
:105A5800002B3FF410AD0EA80DF056F90122514667
:105A68000EA80EF05FFB002305E598465AE5904620
:105A780058E50023237357E56A4F0020F2570020AA
:105A8800A05600209256002084560020D44E0020B4
:105A9800DA570020D002001035FA8E3CF8070020B3
:105AA800CC42002000000000000000204E20002012
:105AB800885600201771577110786F4F4FF01C0CE3
:105AC8000CFB007011F01001B0F82A740FD05A4680
